{
  "_format": "hh-sol-artifact-1",
  "contractName": "ChildVitaGrant",
  "sourceName": "contracts/ChildVitaGrant.sol",
  "abi": [
    {
      "inputs": [],
      "stateMutability": "nonpayable",
      "type": "constructor"
    },
    {
      "anonymous": false,
      "inputs": [
        {
          "indexed": false,
          "internalType": "uint256",
          "name": "id",
          "type": "uint256"
        },
        {
          "indexed": false,
          "internalType": "string",
          "name": "zkProofHash",
          "type": "string"
        }
      ],
      "name": "AttendanceVerified",
      "type": "event"
    },
    {
      "anonymous": false,
      "inputs": [
        {
          "indexed": false,
          "internalType": "uint256",
          "name": "id",
          "type": "uint256"
        },
        {
          "indexed": false,
          "internalType": "address",
          "name": "caregiver",
          "type": "address"
        },
        {
          "indexed": false,
          "internalType": "string",
          "name": "childId",
          "type": "string"
        },
        {
          "indexed": false,
          "internalType": "uint256",
          "name": "amount",
          "type": "uint256"
        }
      ],
      "name": "GrantCreated",
      "type": "event"
    },
    {
      "anonymous": false,
      "inputs": [
        {
          "indexed": false,
          "internalType": "uint256",
          "name": "id",
          "type": "uint256"
        }
      ],
      "name": "GrantPaid",
      "type": "event"
    },
    {
      "inputs": [
        {
          "internalType": "address",
          "name": "",
          "type": "address"
        }
      ],
      "name": "authorizedVerifiers",
      "outputs": [
        {
          "internalType": "bool",
          "name": "",
          "type": "bool"
        }
      ],
      "stateMutability": "view",
      "type": "function"
    },
    {
      "inputs": [
        {
          "internalType": "address",
          "name": "_caregiver",
          "type": "address"
        },
        {
          "internalType": "string",
          "name": "_childId",
          "type": "string"
        },
        {
          "internalType": "uint256",
          "name": "_amount",
          "type": "uint256"
        }
      ],
      "name": "createGrant",
      "outputs": [],
      "stateMutability": "nonpayable",
      "type": "function"
    },
    {
      "inputs": [
        {
          "internalType": "uint256",
          "name": "_grantId",
          "type": "uint256"
        }
      ],
      "name": "getGrant",
      "outputs": [
        {
          "components": [
            {
              "internalType": "uint256",
              "name": "id",
              "type": "uint256"
            },
            {
              "internalType": "address",
              "name": "caregiver",
              "type": "address"
            },
            {
              "internalType": "string",
              "name": "childId",
              "type": "string"
            },
            {
              "internalType": "uint256",
              "name": "amount",
              "type": "uint256"
            },
            {
              "internalType": "bool",
              "name": "attendanceVerified",
              "type": "bool"
            },
            {
              "internalType": "bool",
              "name": "paid",
              "type": "bool"
            },
            {
              "internalType": "string",
              "name": "zkProofHash",
              "type": "string"
            },
            {
              "internalType": "uint256",
              "name": "timestamp",
              "type": "uint256"
            }
          ],
          "internalType": "struct ChildVitaGrant.Grant",
          "name": "",
          "type": "tuple"
        }
      ],
      "stateMutability": "view",
      "type": "function"
    },
    {
      "inputs": [],
      "name": "grantCount",
      "outputs": [
        {
          "internalType": "uint256",
          "name": "",
          "type": "uint256"
        }
      ],
      "stateMutability": "view",
      "type": "function"
    },
    {
      "inputs": [
        {
          "internalType": "uint256",
          "name": "",
          "type": "uint256"
        }
      ],
      "name": "grants",
      "outputs": [
        {
          "internalType": "uint256",
          "name": "id",
          "type": "uint256"
        },
        {
          "internalType": "address",
          "name": "caregiver",
          "type": "address"
        },
        {
          "internalType": "string",
          "name": "childId",
          "type": "string"
        },
        {
          "internalType": "uint256",
          "name": "amount",
          "type": "uint256"
        },
        {
          "internalType": "bool",
          "name": "attendanceVerified",
          "type": "bool"
        },
        {
          "internalType": "bool",
          "name": "paid",
          "type": "bool"
        },
        {
          "internalType": "string",
          "name": "zkProofHash",
          "type": "string"
        },
        {
          "internalType": "uint256",
          "name": "timestamp",
          "type": "uint256"
        }
      ],
      "stateMutability": "view",
      "type": "function"
    },
    {
      "inputs": [],
      "name": "owner",
      "outputs": [
        {
          "internalType": "address",
          "name": "",
          "type": "address"
        }
      ],
      "stateMutability": "view",
      "type": "function"
    },
    {
      "inputs": [
        {
          "internalType": "uint256",
          "name": "_grantId",
          "type": "uint256"
        }
      ],
      "name": "releaseGrant",
      "outputs": [],
      "stateMutability": "nonpayable",
      "type": "function"
    },
    {
      "inputs": [
        {
          "internalType": "uint256",
          "name": "_grantId",
          "type": "uint256"
        },
        {
          "internalType": "string",
          "name": "_zkProofHash",
          "type": "string"
        }
      ],
      "name": "verifyAttendance",
      "outputs": [],
      "stateMutability": "nonpayable",
      "type": "function"
    },
    {
      "stateMutability": "payable",
      "type": "receive"
    }
  ],
  "bytecode": "0x60a060405234801561001057600080fd5b503373ffffffffffffffffffffffffffffffffffffffff1660808173ffffffffffffffffffffffffffffffffffffffff16815250506001600260003373ffffffffffffffffffffffffffffffffffffffff1673ffffffffffffffffffffffffffffffffffffffff16815260200190815260200160002060006101000a81548160ff021916908315150217905550608051611a206100bf6000396000818161046801526109880152611a206000f3fe60806040526004361061007f5760003560e01c80638da5cb5b1161004e5780638da5cb5b1461014a5780639a89171614610175578063b8cc6c93146101b2578063cab42672146101ef57610086565b80630c0debea1461008b5780633c6f2098146100cf578063572a81e6146100f85780637e1b5c151461012157610086565b3661008657005b600080fd5b34801561009757600080fd5b506100b260048036038101906100ad9190610c75565b61021a565b6040516100c6989796959493929190610d9d565b60405180910390f35b3480156100db57600080fd5b506100f660048036038101906100f19190610c75565b6103ac565b005b34801561010457600080fd5b5061011f600480360381019061011a9190610f8a565b610615565b005b34801561012d57600080fd5b5061014860048036038101906101439190611059565b610802565b005b34801561015657600080fd5b5061015f610986565b60405161016c91906110b9565b60405180910390f35b34801561018157600080fd5b5061019c600480360381019061019791906110d4565b6109aa565b6040516101a99190611101565b60405180910390f35b3480156101be57600080fd5b506101d960048036038101906101d49190610c75565b6109ca565b6040516101e6919061124a565b60405180910390f35b3480156101fb57600080fd5b50610204610bc6565b604051610211919061126c565b60405180910390f35b60016020528060005260406000206000915090508060000154908060010160009054906101000a900473ffffffffffffffffffffffffffffffffffffffff1690806002018054610269906112b6565b80601f0160208091040260200160405190810160405280929190818152602001828054610295906112b6565b80156102e25780601f106102b7576101008083540402835291602001916102e2565b820191906000526020600020905b8154815290600101906020018083116102c557829003601f168201915b5050505050908060030154908060040160009054906101000a900460ff16908060040160019054906101000a900460ff1690806005018054610323906112b6565b80601f016020809104026020016040519081016040528092919081815260200182805461034f906112b6565b801561039c5780601f106103715761010080835404028352916020019161039c565b820191906000526020600020905b81548152906001019060200180831161037f57829003601f168201915b5050505050908060060154905088565b60006001600083815260200190815260200160002090508060040160009054906101000a900460ff16610414576040517f08c379a000000000000000000000000000000000000000000000000000000000815260040161040b90611333565b60405180910390fd5b8060040160019054906101000a900460ff1615610466576040517f08c379a000000000000000000000000000000000000000000000000000000000815260040161045d9061139f565b60405180910390fd5b7f000000000000000000000000000000000000000000000000000000000000000073ffffffffffffffffffffffffffffffffffffffff163373ffffffffffffffffffffffffffffffffffffffff16148061050f57508060010160009054906101000a900473ffffffffffffffffffffffffffffffffffffffff1673ffffffffffffffffffffffffffffffffffffffff163373ffffffffffffffffffffffffffffffffffffffff16145b61054e576040517f08c379a00000000000000000000000000000000000000000000000000000000081526004016105459061140b565b60405180910390fd5b60018160040160016101000a81548160ff0219169083151502179055508060010160009054906101000a900473ffffffffffffffffffffffffffffffffffffffff1673ffffffffffffffffffffffffffffffffffffffff166108fc82600301549081150290604051600060405180830381858888f193505050501580156105d9573d6000803e3d6000fd5b507ff4e6354a9eed4aa629a4477f9466e5d803b570e5c92d1005d64d0ed4e2222b1f82604051610609919061126c565b60405180910390a15050565b60008111610658576040517f08c379a000000000000000000000000000000000000000000000000000000000815260040161064f90611477565b60405180910390fd5b60008081548092919061066a906114c6565b919050555060405180610100016040528060005481526020018473ffffffffffffffffffffffffffffffffffffffff1681526020018381526020018281526020016000151581526020016000151581526020016040518060200160405280600081525081526020014281525060016000805481526020019081526020016000206000820151816000015560208201518160010160006101000a81548173ffffffffffffffffffffffffffffffffffffffff021916908373ffffffffffffffffffffffffffffffffffffffff160217905550604082015181600201908161075091906116ba565b506060820151816003015560808201518160040160006101000a81548160ff02191690831515021790555060a08201518160040160016101000a81548160ff02191690831515021790555060c08201518160050190816107b091906116ba565b5060e082015181600601559050507fba6c81353b832121645c594b7d98b074a38f94a967391254807594a72f84bdb46000548484846040516107f5949392919061178c565b60405180910390a1505050565b600260003373ffffffffffffffffffffffffffffffffffffffff1673ffffffffffffffffffffffffffffffffffffffff16815260200190815260200160002060009054906101000a900460ff1661088e576040517f08c379a000000000000000000000000000000000000000000000000000000000815260040161088590611824565b60405180910390fd5b6001600084815260200190815260200160002060040160009054906101000a900460ff16156108f2576040517f08c379a00000000000000000000000000000000000000000000000000000000081526004016108e990611890565b60405180910390fd5b600180600085815260200190815260200160002060040160006101000a81548160ff02191690831515021790555081816001600086815260200190815260200160002060050191826109459291906118bb565b507f9fde5eec0bf380aabcd0745052fd0aa00469ecb7a7bb34705811e0a574ddee52838383604051610979939291906119b8565b60405180910390a1505050565b7f000000000000000000000000000000000000000000000000000000000000000081565b60026020528060005260406000206000915054906101000a900460ff1681565b6109d2610bcc565b6001600083815260200190815260200160002060405180610100016040529081600082015481526020016001820160009054906101000a900473ffffffffffffffffffffffffffffffffffffffff1673ffffffffffffffffffffffffffffffffffffffff1673ffffffffffffffffffffffffffffffffffffffff168152602001600282018054610a61906112b6565b80601f0160208091040260200160405190810160405280929190818152602001828054610a8d906112b6565b8015610ada5780601f10610aaf57610100808354040283529160200191610ada565b820191906000526020600020905b815481529060010190602001808311610abd57829003601f168201915b50505050508152602001600382015481526020016004820160009054906101000a900460ff161515151581526020016004820160019054906101000a900460ff16151515158152602001600582018054610b33906112b6565b80601f0160208091040260200160405190810160405280929190818152602001828054610b5f906112b6565b8015610bac5780601f10610b8157610100808354040283529160200191610bac565b820191906000526020600020905b815481529060010190602001808311610b8f57829003601f168201915b505050505081526020016006820154815250509050919050565b60005481565b60405180610100016040528060008152602001600073ffffffffffffffffffffffffffffffffffffffff168152602001606081526020016000815260200160001515815260200160001515815260200160608152602001600081525090565b6000604051905090565b600080fd5b600080fd5b6000819050919050565b610c5281610c3f565b8114610c5d57600080fd5b50565b600081359050610c6f81610c49565b92915050565b600060208284031215610c8b57610c8a610c35565b5b6000610c9984828501610c60565b91505092915050565b610cab81610c3f565b82525050565b600073ffffffffffffffffffffffffffffffffffffffff82169050919050565b6000610cdc82610cb1565b9050919050565b610cec81610cd1565b82525050565b600081519050919050565b600082825260208201905092915050565b60005b83811015610d2c578082015181840152602081019050610d11565b60008484015250505050565b6000601f19601f8301169050919050565b6000610d5482610cf2565b610d5e8185610cfd565b9350610d6e818560208601610d0e565b610d7781610d38565b840191505092915050565b60008115159050919050565b610d9781610d82565b82525050565b600061010082019050610db3600083018b610ca2565b610dc0602083018a610ce3565b8181036040830152610dd28189610d49565b9050610de16060830188610ca2565b610dee6080830187610d8e565b610dfb60a0830186610d8e565b81810360c0830152610e0d8185610d49565b9050610e1c60e0830184610ca2565b9998505050505050505050565b610e3281610cd1565b8114610e3d57600080fd5b50565b600081359050610e4f81610e29565b92915050565b600080fd5b600080fd5b7f4e487b7100000000000000000000000000000000000000000000000000000000600052604160045260246000fd5b610e9782610d38565b810181811067ffffffffffffffff82111715610eb657610eb5610e5f565b5b80604052505050565b6000610ec9610c2b565b9050610ed58282610e8e565b919050565b600067ffffffffffffffff821115610ef557610ef4610e5f565b5b610efe82610d38565b9050602081019050919050565b82818337600083830152505050565b6000610f2d610f2884610eda565b610ebf565b905082815260208101848484011115610f4957610f48610e5a565b5b610f54848285610f0b565b509392505050565b600082601f830112610f7157610f70610e55565b5b8135610f81848260208601610f1a565b91505092915050565b600080600060608486031215610fa357610fa2610c35565b5b6000610fb186828701610e40565b935050602084013567ffffffffffffffff811115610fd257610fd1610c3a565b5b610fde86828701610f5c565b9250506040610fef86828701610c60565b9150509250925092565b600080fd5b600080fd5b60008083601f84011261101957611018610e55565b5b8235905067ffffffffffffffff81111561103657611035610ff9565b5b60208301915083600182028301111561105257611051610ffe565b5b9250929050565b60008060006040848603121561107257611071610c35565b5b600061108086828701610c60565b935050602084013567ffffffffffffffff8111156110a1576110a0610c3a565b5b6110ad86828701611003565b92509250509250925092565b60006020820190506110ce6000830184610ce3565b92915050565b6000602082840312156110ea576110e9610c35565b5b60006110f884828501610e40565b91505092915050565b60006020820190506111166000830184610d8e565b92915050565b61112581610c3f565b82525050565b61113481610cd1565b82525050565b600082825260208201905092915050565b600061115682610cf2565b611160818561113a565b9350611170818560208601610d0e565b61117981610d38565b840191505092915050565b61118d81610d82565b82525050565b6000610100830160008301516111ac600086018261111c565b5060208301516111bf602086018261112b565b50604083015184820360408601526111d7828261114b565b91505060608301516111ec606086018261111c565b5060808301516111ff6080860182611184565b5060a083015161121260a0860182611184565b5060c083015184820360c086015261122a828261114b565b91505060e083015161123f60e086018261111c565b508091505092915050565b600060208201905081810360008301526112648184611193565b905092915050565b60006020820190506112816000830184610ca2565b92915050565b7f4e487b7100000000000000000000000000000000000000000000000000000000600052602260045260246000fd5b600060028204905060018216806112ce57607f821691505b6020821081036112e1576112e0611287565b5b50919050565b7f417474656e64616e6365206e6f74207665726966696564000000000000000000600082015250565b600061131d601783610cfd565b9150611328826112e7565b602082019050919050565b6000602082019050818103600083015261134c81611310565b9050919050565b7f416c726561647920706169640000000000000000000000000000000000000000600082015250565b6000611389600c83610cfd565b915061139482611353565b602082019050919050565b600060208201905081810360008301526113b88161137c565b9050919050565b7f4e6f7420617574686f72697a6564000000000000000000000000000000000000600082015250565b60006113f5600e83610cfd565b9150611400826113bf565b602082019050919050565b60006020820190508181036000830152611424816113e8565b9050919050565b7f416d6f756e74206d757374206265203e20300000000000000000000000000000600082015250565b6000611461601283610cfd565b915061146c8261142b565b602082019050919050565b6000602082019050818103600083015261149081611454565b9050919050565b7f4e487b7100000000000000000000000000000000000000000000000000000000600052601160045260246000fd5b60006114d182610c3f565b91507fffffffffffffffffffffffffffffffffffffffffffffffffffffffffffffffff820361150357611502611497565b5b600182019050919050565b60008190508160005260206000209050919050565b60006020601f8301049050919050565b600082821b905092915050565b6000600883026115707fffffffffffffffffffffffffffffffffffffffffffffffffffffffffffffffff82611533565b61157a8683611533565b95508019841693508086168417925050509392505050565b6000819050919050565b60006115b76115b26115ad84610c3f565b611592565b610c3f565b9050919050565b6000819050919050565b6115d18361159c565b6115e56115dd826115be565b848454611540565b825550505050565b600090565b6115fa6115ed565b6116058184846115c8565b505050565b5b818110156116295761161e6000826115f2565b60018101905061160b565b5050565b601f82111561166e5761163f8161150e565b61164884611523565b81016020851015611657578190505b61166b61166385611523565b83018261160a565b50505b505050565b600082821c905092915050565b600061169160001984600802611673565b1980831691505092915050565b60006116aa8383611680565b9150826002028217905092915050565b6116c382610cf2565b67ffffffffffffffff8111156116dc576116db610e5f565b5b6116e682546112b6565b6116f182828561162d565b600060209050601f8311600181146117245760008415611712578287015190505b61171c858261169e565b865550611784565b601f1984166117328661150e565b60005b8281101561175a57848901518255600182019150602085019450602081019050611735565b868310156117775784890151611773601f891682611680565b8355505b6001600288020188555050505b505050505050565b60006080820190506117a16000830187610ca2565b6117ae6020830186610ce3565b81810360408301526117c08185610d49565b90506117cf6060830184610ca2565b95945050505050565b7f4e6f7420617574686f72697a6564207665726966696572000000000000000000600082015250565b600061180e601783610cfd565b9150611819826117d8565b602082019050919050565b6000602082019050818103600083015261183d81611801565b9050919050565b7f416c726561647920766572696669656400000000000000000000000000000000600082015250565b600061187a601083610cfd565b915061188582611844565b602082019050919050565b600060208201905081810360008301526118a98161186d565b9050919050565b600082905092915050565b6118c583836118b0565b67ffffffffffffffff8111156118de576118dd610e5f565b5b6118e882546112b6565b6118f382828561162d565b6000601f8311600181146119225760008415611910578287013590505b61191a858261169e565b865550611982565b601f1984166119308661150e565b60005b8281101561195857848901358255600182019150602085019450602081019050611933565b868310156119755784890135611971601f891682611680565b8355505b6001600288020188555050505b50505050505050565b60006119978385610cfd565b93506119a4838584610f0b565b6119ad83610d38565b840190509392505050565b60006040820190506119cd6000830186610ca2565b81810360208301526119e081848661198b565b905094935050505056fea264697066735822122078da2ea60c416a7f915cdd4767e29d7da921c3d4dbc3a9f20e67701e7771f3f464736f6c63430008180033",
  "linkReferences": {},
  "deployedLinkReferences": {}
}