{
  "_format": "hh-sol-artifact-1",
  "contractName": "ChildVitaGrant",
  "sourceName": "contracts/ChildVitaGrant.sol",
  "abi": [
    {
      "inputs": [],
      "stateMutability": "nonpayable",
      "type": "constructor"
    },
    {
      "anonymous": false,
      "inputs": [
        {
          "indexed": false,
          "internalType": "uint256",
          "name": "id",
          "type": "uint256"
        },
        {
          "indexed": false,
          "internalType": "string",
          "name": "zkProofHash",
          "type": "string"
        }
      ],
      "name": "AttendanceVerified",
      "type": "event"
    },
    {
      "anonymous": false,
      "inputs": [
        {
          "indexed": false,
          "internalType": "uint256",
          "name": "id",
          "type": "uint256"
        },
        {
          "indexed": false,
          "internalType": "address",
          "name": "caregiver",
          "type": "address"
        },
        {
          "indexed": false,
          "internalType": "uint256",
          "name": "amount",
          "type": "uint256"
        }
      ],
      "name": "GrantCreated",
      "type": "event"
    },
    {
      "anonymous": false,
      "inputs": [
        {
          "indexed": false,
          "internalType": "uint256",
          "name": "id",
          "type": "uint256"
        }
      ],
      "name": "GrantPaid",
      "type": "event"
    },
    {
      "inputs": [
        {
          "internalType": "address",
          "name": "",
          "type": "address"
        }
      ],
      "name": "authorizedVerifiers",
      "outputs": [
        {
          "internalType": "bool",
          "name": "",
          "type": "bool"
        }
      ],
      "stateMutability": "view",
      "type": "function"
    },
    {
      "inputs": [
        {
          "internalType": "address",
          "name": "_caregiver",
          "type": "address"
        },
        {
          "internalType": "uint256",
          "name": "_childId",
          "type": "uint256"
        },
        {
          "internalType": "uint256",
          "name": "_amount",
          "type": "uint256"
        }
      ],
      "name": "createGrant",
      "outputs": [],
      "stateMutability": "nonpayable",
      "type": "function"
    },
    {
      "inputs": [
        {
          "internalType": "uint256",
          "name": "_grantId",
          "type": "uint256"
        }
      ],
      "name": "getGrant",
      "outputs": [
        {
          "components": [
            {
              "internalType": "uint256",
              "name": "id",
              "type": "uint256"
            },
            {
              "internalType": "address",
              "name": "caregiver",
              "type": "address"
            },
            {
              "internalType": "uint256",
              "name": "childId",
              "type": "uint256"
            },
            {
              "internalType": "uint256",
              "name": "amount",
              "type": "uint256"
            },
            {
              "internalType": "bool",
              "name": "attendanceVerified",
              "type": "bool"
            },
            {
              "internalType": "bool",
              "name": "paid",
              "type": "bool"
            },
            {
              "internalType": "string",
              "name": "zkProofHash",
              "type": "string"
            },
            {
              "internalType": "uint256",
              "name": "timestamp",
              "type": "uint256"
            }
          ],
          "internalType": "struct ChildVitaGrant.Grant",
          "name": "",
          "type": "tuple"
        }
      ],
      "stateMutability": "view",
      "type": "function"
    },
    {
      "inputs": [],
      "name": "grantCount",
      "outputs": [
        {
          "internalType": "uint256",
          "name": "",
          "type": "uint256"
        }
      ],
      "stateMutability": "view",
      "type": "function"
    },
    {
      "inputs": [
        {
          "internalType": "uint256",
          "name": "",
          "type": "uint256"
        }
      ],
      "name": "grants",
      "outputs": [
        {
          "internalType": "uint256",
          "name": "id",
          "type": "uint256"
        },
        {
          "internalType": "address",
          "name": "caregiver",
          "type": "address"
        },
        {
          "internalType": "uint256",
          "name": "childId",
          "type": "uint256"
        },
        {
          "internalType": "uint256",
          "name": "amount",
          "type": "uint256"
        },
        {
          "internalType": "bool",
          "name": "attendanceVerified",
          "type": "bool"
        },
        {
          "internalType": "bool",
          "name": "paid",
          "type": "bool"
        },
        {
          "internalType": "string",
          "name": "zkProofHash",
          "type": "string"
        },
        {
          "internalType": "uint256",
          "name": "timestamp",
          "type": "uint256"
        }
      ],
      "stateMutability": "view",
      "type": "function"
    },
    {
      "inputs": [],
      "name": "owner",
      "outputs": [
        {
          "internalType": "address",
          "name": "",
          "type": "address"
        }
      ],
      "stateMutability": "view",
      "type": "function"
    },
    {
      "inputs": [
        {
          "internalType": "uint256",
          "name": "_grantId",
          "type": "uint256"
        }
      ],
      "name": "releaseGrant",
      "outputs": [],
      "stateMutability": "nonpayable",
      "type": "function"
    },
    {
      "inputs": [
        {
          "internalType": "uint256",
          "name": "_grantId",
          "type": "uint256"
        },
        {
          "internalType": "string",
          "name": "_zkProofHash",
          "type": "string"
        }
      ],
      "name": "verifyAttendance",
      "outputs": [],
      "stateMutability": "nonpayable",
      "type": "function"
    },
    {
      "stateMutability": "payable",
      "type": "receive"
    }
  ],
  "bytecode": "0x60a060405234801561001057600080fd5b503373ffffffffffffffffffffffffffffffffffffffff1660808173ffffffffffffffffffffffffffffffffffffffff16815250506001600260003373ffffffffffffffffffffffffffffffffffffffff1673ffffffffffffffffffffffffffffffffffffffff16815260200190815260200160002060006101000a81548160ff0219169083151502179055506080516117c76100bf600039600081816103e0015261071301526117c76000f3fe60806040526004361061007f5760003560e01c80639a8917161161004e5780639a8917161461014c578063b8cc6c9314610189578063cab42672146101c6578063dde26ec9146101f157610086565b80630c0debea1461008b5780633c6f2098146100cf5780637e1b5c15146100f85780638da5cb5b1461012157610086565b3661008657005b600080fd5b34801561009757600080fd5b506100b260048036038101906100ad9190610b4d565b61021a565b6040516100c6989796959493929190610c75565b60405180910390f35b3480156100db57600080fd5b506100f660048036038101906100f19190610b4d565b610324565b005b34801561010457600080fd5b5061011f600480360381019061011a9190610d5f565b61058d565b005b34801561012d57600080fd5b50610136610711565b6040516101439190610dbf565b60405180910390f35b34801561015857600080fd5b50610173600480360381019061016e9190610e06565b610735565b6040516101809190610e33565b60405180910390f35b34801561019557600080fd5b506101b060048036038101906101ab9190610b4d565b610755565b6040516101bd9190610f75565b60405180910390f35b3480156101d257600080fd5b506101db6108c9565b6040516101e89190610f97565b60405180910390f35b3480156101fd57600080fd5b5061021860048036038101906102139190610fb2565b6108cf565b005b60016020528060005260406000206000915090508060000154908060010160009054906101000a900473ffffffffffffffffffffffffffffffffffffffff16908060020154908060030154908060040160009054906101000a900460ff16908060040160019054906101000a900460ff169080600501805461029b90611034565b80601f01602080910402602001604051908101604052809291908181526020018280546102c790611034565b80156103145780601f106102e957610100808354040283529160200191610314565b820191906000526020600020905b8154815290600101906020018083116102f757829003601f168201915b5050505050908060060154905088565b60006001600083815260200190815260200160002090508060040160009054906101000a900460ff1661038c576040517f08c379a0000000000000000000000000000000000000000000000000000000008152600401610383906110b1565b60405180910390fd5b8060040160019054906101000a900460ff16156103de576040517f08c379a00000000000000000000000000000000000000000000000000000000081526004016103d59061111d565b60405180910390fd5b7f000000000000000000000000000000000000000000000000000000000000000073ffffffffffffffffffffffffffffffffffffffff163373ffffffffffffffffffffffffffffffffffffffff16148061048757508060010160009054906101000a900473ffffffffffffffffffffffffffffffffffffffff1673ffffffffffffffffffffffffffffffffffffffff163373ffffffffffffffffffffffffffffffffffffffff16145b6104c6576040517f08c379a00000000000000000000000000000000000000000000000000000000081526004016104bd90611189565b60405180910390fd5b60018160040160016101000a81548160ff0219169083151502179055508060010160009054906101000a900473ffffffffffffffffffffffffffffffffffffffff1673ffffffffffffffffffffffffffffffffffffffff166108fc82600301549081150290604051600060405180830381858888f19350505050158015610551573d6000803e3d6000fd5b507ff4e6354a9eed4aa629a4477f9466e5d803b570e5c92d1005d64d0ed4e2222b1f826040516105819190610f97565b60405180910390a15050565b600260003373ffffffffffffffffffffffffffffffffffffffff1673ffffffffffffffffffffffffffffffffffffffff16815260200190815260200160002060009054906101000a900460ff16610619576040517f08c379a0000000000000000000000000000000000000000000000000000000008152600401610610906111f5565b60405180910390fd5b6001600084815260200190815260200160002060040160009054906101000a900460ff161561067d576040517f08c379a000000000000000000000000000000000000000000000000000000000815260040161067490611261565b60405180910390fd5b600180600085815260200190815260200160002060040160006101000a81548160ff02191690831515021790555081816001600086815260200190815260200160002060050191826106d0929190611467565b507f9fde5eec0bf380aabcd0745052fd0aa00469ecb7a7bb34705811e0a574ddee5283838360405161070493929190611573565b60405180910390a1505050565b7f000000000000000000000000000000000000000000000000000000000000000081565b60026020528060005260406000206000915054906101000a900460ff1681565b61075d610aae565b6001600083815260200190815260200160002060405180610100016040529081600082015481526020016001820160009054906101000a900473ffffffffffffffffffffffffffffffffffffffff1673ffffffffffffffffffffffffffffffffffffffff1673ffffffffffffffffffffffffffffffffffffffff16815260200160028201548152602001600382015481526020016004820160009054906101000a900460ff161515151581526020016004820160019054906101000a900460ff1615151515815260200160058201805461083690611034565b80601f016020809104026020016040519081016040528092919081815260200182805461086290611034565b80156108af5780601f10610884576101008083540402835291602001916108af565b820191906000526020600020905b81548152906001019060200180831161089257829003601f168201915b505050505081526020016006820154815250509050919050565b60005481565b60008111610912576040517f08c379a0000000000000000000000000000000000000000000000000000000008152600401610909906115f1565b60405180910390fd5b60008081548092919061092490611640565b919050555060405180610100016040528060005481526020018473ffffffffffffffffffffffffffffffffffffffff1681526020018381526020018281526020016000151581526020016000151581526020016040518060200160405280600081525081526020014281525060016000805481526020019081526020016000206000820151816000015560208201518160010160006101000a81548173ffffffffffffffffffffffffffffffffffffffff021916908373ffffffffffffffffffffffffffffffffffffffff160217905550604082015181600201556060820151816003015560808201518160040160006101000a81548160ff02191690831515021790555060a08201518160040160016101000a81548160ff02191690831515021790555060c0820151816005019081610a5e9190611688565b5060e082015181600601559050507f0522ba57bb38d1384cae5e8e838a55567db2cab52b952427fdb3c7be1e8d70b86000548483604051610aa19392919061175a565b60405180910390a1505050565b60405180610100016040528060008152602001600073ffffffffffffffffffffffffffffffffffffffff168152602001600081526020016000815260200160001515815260200160001515815260200160608152602001600081525090565b600080fd5b600080fd5b6000819050919050565b610b2a81610b17565b8114610b3557600080fd5b50565b600081359050610b4781610b21565b92915050565b600060208284031215610b6357610b62610b0d565b5b6000610b7184828501610b38565b91505092915050565b610b8381610b17565b82525050565b600073ffffffffffffffffffffffffffffffffffffffff82169050919050565b6000610bb482610b89565b9050919050565b610bc481610ba9565b82525050565b60008115159050919050565b610bdf81610bca565b82525050565b600081519050919050565b600082825260208201905092915050565b60005b83811015610c1f578082015181840152602081019050610c04565b60008484015250505050565b6000601f19601f8301169050919050565b6000610c4782610be5565b610c518185610bf0565b9350610c61818560208601610c01565b610c6a81610c2b565b840191505092915050565b600061010082019050610c8b600083018b610b7a565b610c98602083018a610bbb565b610ca56040830189610b7a565b610cb26060830188610b7a565b610cbf6080830187610bd6565b610ccc60a0830186610bd6565b81810360c0830152610cde8185610c3c565b9050610ced60e0830184610b7a565b9998505050505050505050565b600080fd5b600080fd5b600080fd5b60008083601f840112610d1f57610d1e610cfa565b5b8235905067ffffffffffffffff811115610d3c57610d3b610cff565b5b602083019150836001820283011115610d5857610d57610d04565b5b9250929050565b600080600060408486031215610d7857610d77610b0d565b5b6000610d8686828701610b38565b935050602084013567ffffffffffffffff811115610da757610da6610b12565b5b610db386828701610d09565b92509250509250925092565b6000602082019050610dd46000830184610bbb565b92915050565b610de381610ba9565b8114610dee57600080fd5b50565b600081359050610e0081610dda565b92915050565b600060208284031215610e1c57610e1b610b0d565b5b6000610e2a84828501610df1565b91505092915050565b6000602082019050610e486000830184610bd6565b92915050565b610e5781610b17565b82525050565b610e6681610ba9565b82525050565b610e7581610bca565b82525050565b600082825260208201905092915050565b6000610e9782610be5565b610ea18185610e7b565b9350610eb1818560208601610c01565b610eba81610c2b565b840191505092915050565b600061010083016000830151610ede6000860182610e4e565b506020830151610ef16020860182610e5d565b506040830151610f046040860182610e4e565b506060830151610f176060860182610e4e565b506080830151610f2a6080860182610e6c565b5060a0830151610f3d60a0860182610e6c565b5060c083015184820360c0860152610f558282610e8c565b91505060e0830151610f6a60e0860182610e4e565b508091505092915050565b60006020820190508181036000830152610f8f8184610ec5565b905092915050565b6000602082019050610fac6000830184610b7a565b92915050565b600080600060608486031215610fcb57610fca610b0d565b5b6000610fd986828701610df1565b9350506020610fea86828701610b38565b9250506040610ffb86828701610b38565b9150509250925092565b7f4e487b7100000000000000000000000000000000000000000000000000000000600052602260045260246000fd5b6000600282049050600182168061104c57607f821691505b60208210810361105f5761105e611005565b5b50919050565b7f417474656e64616e6365206e6f74207665726966696564000000000000000000600082015250565b600061109b601783610bf0565b91506110a682611065565b602082019050919050565b600060208201905081810360008301526110ca8161108e565b9050919050565b7f416c726561647920706169640000000000000000000000000000000000000000600082015250565b6000611107600c83610bf0565b9150611112826110d1565b602082019050919050565b60006020820190508181036000830152611136816110fa565b9050919050565b7f4e6f7420617574686f72697a6564000000000000000000000000000000000000600082015250565b6000611173600e83610bf0565b915061117e8261113d565b602082019050919050565b600060208201905081810360008301526111a281611166565b9050919050565b7f4e6f7420617574686f72697a6564207665726966696572000000000000000000600082015250565b60006111df601783610bf0565b91506111ea826111a9565b602082019050919050565b6000602082019050818103600083015261120e816111d2565b9050919050565b7f416c726561647920766572696669656400000000000000000000000000000000600082015250565b600061124b601083610bf0565b915061125682611215565b602082019050919050565b6000602082019050818103600083015261127a8161123e565b9050919050565b600082905092915050565b7f4e487b7100000000000000000000000000000000000000000000000000000000600052604160045260246000fd5b60008190508160005260206000209050919050565b60006020601f8301049050919050565b600082821b905092915050565b60006008830261131d7fffffffffffffffffffffffffffffffffffffffffffffffffffffffffffffffff826112e0565b61132786836112e0565b95508019841693508086168417925050509392505050565b6000819050919050565b600061136461135f61135a84610b17565b61133f565b610b17565b9050919050565b6000819050919050565b61137e83611349565b61139261138a8261136b565b8484546112ed565b825550505050565b600090565b6113a761139a565b6113b2818484611375565b505050565b5b818110156113d6576113cb60008261139f565b6001810190506113b8565b5050565b601f82111561141b576113ec816112bb565b6113f5846112d0565b81016020851015611404578190505b611418611410856112d0565b8301826113b7565b50505b505050565b600082821c905092915050565b600061143e60001984600802611420565b1980831691505092915050565b6000611457838361142d565b9150826002028217905092915050565b6114718383611281565b67ffffffffffffffff81111561148a5761148961128c565b5b6114948254611034565b61149f8282856113da565b6000601f8311600181146114ce57600084156114bc578287013590505b6114c6858261144b565b86555061152e565b601f1984166114dc866112bb565b60005b82811015611504578489013582556001820191506020850194506020810190506114df565b86831015611521578489013561151d601f89168261142d565b8355505b6001600288020188555050505b50505050505050565b82818337600083830152505050565b60006115528385610bf0565b935061155f838584611537565b61156883610c2b565b840190509392505050565b60006040820190506115886000830186610b7a565b818103602083015261159b818486611546565b9050949350505050565b7f416d6f756e74206d757374206265203e20300000000000000000000000000000600082015250565b60006115db601283610bf0565b91506115e6826115a5565b602082019050919050565b6000602082019050818103600083015261160a816115ce565b9050919050565b7f4e487b7100000000000000000000000000000000000000000000000000000000600052601160045260246000fd5b600061164b82610b17565b91507fffffffffffffffffffffffffffffffffffffffffffffffffffffffffffffffff820361167d5761167c611611565b5b600182019050919050565b61169182610be5565b67ffffffffffffffff8111156116aa576116a961128c565b5b6116b48254611034565b6116bf8282856113da565b600060209050601f8311600181146116f257600084156116e0578287015190505b6116ea858261144b565b865550611752565b601f198416611700866112bb565b60005b8281101561172857848901518255600182019150602085019450602081019050611703565b868310156117455784890151611741601f89168261142d565b8355505b6001600288020188555050505b505050505050565b600060608201905061176f6000830186610b7a565b61177c6020830185610bbb565b6117896040830184610b7a565b94935050505056fea26469706673582212204e3a0526e4b262d46311a6adb9655cca12762ca99744a2e9b6cffa92828bb32164736f6c63430008180033",
  "linkReferences": {},
  "deployedLinkReferences": {}
}